:100000005BEF1DF00000000000EF00F000000000BA
:0A0010000000000000000000F3D71C
:10001C000B820BAE18EF00F00368026801680068F1
:08002C000A360232FF0E120039
:0E003400026A016A006A086A036A000E12007E
:100042000B840BAE2CEF00F0010E036E026A016A04
:0A005200006A0A360232FF0E1200A7
:08005C000AAE029E000E120024
:0E00640001019DB102D08B9C01D08B8C12004B
:0E00720001019DB102D08B9E01D08B8E120039
:0E00800001019DB102D08B9601D08B8612003B
:0E008E0001019DB102D0899401D08984120035
:0E009C0001019DB102D08B9801D08B8812001B
:0E00AA0001019DB102D08B9801D08B8812000D
:0E00B80001019DB102D08B9601D08B86120003
:0E00C60001019DB102D08B9A01D08B8A1200ED
:0E00D40001019DB102D08A9201D08A821200F1
:0E00E20001019DB102D08B9401D08B841200DD
:0E00F00001019DB102D08B9801D08B881200C7
:0E00FE0001019DB102D08B9801D08B881200B9
:0E010C0001019DB102D08B9601D08B861200AE
:0E011A0001019DB102D08B9A01D08B8A120098
:0E01280001019DB102D08A9401D08A84120098
:0E01360001019DB102D08F9001D08F80120088
:0E01440001019DB102D08F9201D08F82120076
:0E01520001019DB102D08B9601D08B86120068
:0E01600001019DB102D08F9401D08F84120056
:0E016E0001019DB102D08D9401D08D8412004C
:0E017C0001019DB102D08D9601D08D8612003A
:0E018A0001019DB102D08B9801D08B8812002C
:0E01980001019DB102D08B9601D08B86120022
:0E01A60001019DB102D08B9A01D08B8A12000C
:0E01B40001019DB102D08A9001D08A80120014
:0E01C20001019DB102D08B9201D08B82120000
:1001D0000F0121B302D00000FBD79DC11CFF12000C
:0E01E000ACB202D00000FCD79DC1ADFF1200F2
:0E01EE0001019DB102D0899001D089801200DC
:0E01FC0001019DB102D08D9001D08D801200C6
:0E020A0001019DB102D08B9001D08B801200BB
:0E02180001019DB102D08B9801D08B8812009D
:0E02260001019DB102D08B9601D08B86120093
:0E02340001019DB102D0899201D08982120091
:0E02420001019DB102D08D9201D08D8212007B
:0E02500001019DB102D0899801D08988120069
:0E025E0001019DB102D08B9E01D08B8E12004B
:10026C000CB078EF01F00CA21EEF02F00E6A000E3B
:10027C0002648FEF01F0F00E0214D8A45AEF01F0D3
:10028C00023A01380F0B02260138F00B016E0038D0
:10029C000F0B01260038F00B006E08380F0B0026F0
:1002AC000838F00B086E0E84D89002BE73EF01F084
:1002BC0008360036013602360E2A02BE73EF01F004
:1002CC0008360036013602360E2A02BE73EF01F0F4
:1002DC0008360036013602360E2A0E50036414EF2F
:1002EC0002F0035E0BBC08AE19EF02F0D880800E52
:1002FC0008640030000E002201220222D8A019EF5F
:10030C0002F0023201320032034A1EEF02F019EF02
:10031C0002F001C002F000C001F008C000F0086A51
:10032C00000E0E860264C6EF01F0F00E0214D8A483
:10033C00AEEF01F0023A01380F0B02260138F00B38
:10034C00016E00380F0B01260038F00B006E0E8486
:10035C00D89002BE73EF01F00036013602360E2A39
:10036C0002BE73EF01F00036013602360E2A02BED1
:10037C0073EF01F00036013602360E2A73EF01F0EE
:10038C0001C002F000C001F0006A000E0E960E884B
:10039C000264F3EF01F0F00E0214D8A4DEEF01F0CA
:1003AC00023A01380F0B02260138F00B016E0E8455
:1003BC00D89002BE73EF01F0013602360E2A02BE4F
:1003CC0073EF01F0013602360E2A02BE73EF01F014
:1003DC00013602360E2A73EF01F001C002F0016AF9
:1003EC00000E0E86026423EF02F0F00E0214D8A465
:1003FC0002EF02F0023A0E84D89002BE73EF01F0C5
:10040C0002360E2A02BE73EF01F002360E2A02BE2D
:10041C0073EF01F002360E2A73EF01F0010E0C6E31
:10042C000ADE26EF02F0020E0C6E12DE26EF02F050
:10043C00040E0C6EEDDD26EF02F0080E0C6EF4DDF2
:02044C0012009C
:0E044E0001019DB102D08B9C01D08B8C12005D
:10045C00C7B409D01F0EC514016E0150000A03E188
:0A046C00010E006E01D0006A1200BC
:1004760068B409D01F0E6614016E0150000A03E12C
:0A048600010E006E01D0006A1200A2
:10049000F250026EF29E0500FF6A0150FE6E00509F
:0804A000FD6E02BEF28E120097
:1004A8000B800BAE60EF02F0026A0AAEFF0E026E1E
:0C04B800016E006E0A360232FF0E1200C8
:1004C400025006180E6E086A096A0B6A0350076424
:1004D40055EF03F006500A6E068E028E03500B6E23
:1004E4000750036E000E0B64A5EF02F00B50075E7D
:1004F400D8B446EF03F0070E076414EF03F0075E69
:1005040000C008F001C000F002C001F0026A074E0A
:1005140046EF03F00764E9EF02F0075E00C008F05D
:1005240001C000F0016A074E46EF03F00764C7EF0D
:1005340002F0075E00C008F0006A074E46EF03F0C1
:100544000764AEEF02F00AC002F005C001F004C077
:1005540000F0086A70EF04F0030E0764B9EF02F0CC
:10056400075E08380F0B086E074E46EF03F0D8906D
:100574000832074E46EF03F0D8900832074E46EF94
:1005840003F0D890083246EF03F0030E0764D8EF67
:1005940002F0075E08380F0B086E0038F00B0826CF
:1005A40000380F0B006E074E46EF03F0D890003270
:1005B4000832074E46EF03F0D89000320832074E57
:1005C40046EF03F0D8900032083246EF03F0030EF2
:1005D400076400EF03F0075E08380F0B086E00385D
:1005E400F00B082600380F0B006E0138F00B0026C4
:1005F40001380F0B016E074E46EF03F0D89001321D
:1006040000320832074E46EF03F0D8900132003230
:100614000832074E46EF03F0D89001320032083218
:1006240046EF03F0030E076431EF03F0075E08386A
:100634000F0B086E0038F00B082600380F0B006E05
:100644000138F00B002601380F0B016E0238F00B55
:10065400012602380F0B026E074E46EF03F0D890C6
:100664000232013200320832074E46EF03F0D890CE
:100674000232013200320832074E46EF03F0D890BE
:100684000232013200320832096A000E0EAE3AEF2D
:1006940004F0081E001E011E021E082A0022012268
:1006A40002223AEF04F00750D8A45BEF03F070EF96
:1006B40004F0096A02C00AF0028E068E0750035C39
:1006C400076ED8B42DEF04F0070E0764FBEF03F0B8
:1006D400075E0450096E0550046E0650056E066AE6
:1006E400074E2DEF04F0070E0764D0EF03F0075E0A
:1006F4000450096E0550046E056A074E2DEF04F090
:10070400070E0764AEEF03F0075E0450096E046A37
:10071400074E2DEF04F0070E076495EF03F00AC0AF
:1007240002F070EF04F0030E0764A0EF03F0075E1D
:1007340009380F0B096E074E2DEF04F0D8900932DB
:10074400074E2DEF04F0D8900932074E2DEF04F038
:10075400D89009322DEF04F0030E0764BFEF03F0C5
:10076400075E09380F0B096E0438F00B09260438AC
:100774000F0B046E074E2DEF04F0D89004320932AB
:10078400074E2DEF04F0D89004320932074E2DEFB6
:1007940004F0D890043209322DEF04F0030E0764FC
:1007A400E7EF03F0075E09380F0B096E0438F00B0E
:1007B400092604380F0B046E0538F00B042605389F
:1007C4000F0B056E074E2DEF04F0D890053204325E
:1007D4000932074E2DEF04F0D89005320432093265
:1007E400074E2DEF04F0D8900532043209322DEF74
:1007F40004F0030E076418EF04F0075E09380F0BCA
:10080400096E0438F00B092604380F0B046E053802
:10081400F00B042605380F0B056E0638F00B052681
:1008240006380F0B066E074E2DEF04F0D8900632F3
:10083400053204320932074E2DEF04F0D890063207
:10084400053204320932074E2DEF04F0D8900632F7
:10085400053204320932086A000E0EAE3AEF04F093
:10086400091E041E051E061E092A0422052206224C
:100874000950082604500022055001220650022285
:100884000EBE51EF04F0D8A060EF04F00232013242
:1008940000320832033E60EF04F06AEF04F0D8B08F
:1008A40065EF04F0000E081E001E011E021E082A39
:1008B4000022012202220A7E65EF04F0010E0C6E72
:1008C400D3DC72EF04F0020E0C6ECEDC72EF04F097
:1008D400040E0C6E0EEC00F072EF04F0000E0C6EC1
:0208E400120000
:0A08E600000E84B6010E006E120031
:0A08F000000E80B4010E006E12002D
:0A08FA00000E82B8010E006E12001D
:0A090400000E82B8010E006E120012
:0A090E00000E81B4010E006E12000D
:0A091800000E84B4010E006E120000
:0A092200000E82BA010E006E1200F2
:0A092C00000E80B8010E006E1200EC
:0A093600000E82B6010E006E1200E2
:0A094000000E82B6010E006E1200D8
:0A094A00000E82BE010E006E1200C6
:0A095400000E82B8010E006E1200C2
:0A095E00000E84B2010E006E1200BC
:0A096800000E82B6010E006E1200B0
:0A097200000E82B6010E006E1200A6
:0A097C00000E86B0010E006E12009E
:0A098600000E82BE010E006E12008A
:0A099000000E82BC010E006E120082
:0A099A00000E82B4010E006E120080
:0A09A400000E81B2010E006E120079
:0409AE006684120049
:0609B200067E87DD120045
:0409B800C5841200E0
:1009BC000B6A0C6A086A0350D8B462EF05F002C0E7
:1009CC000AF0028E9E0E035E03AE52EF05F0036C2E
:1009DC00080E035CD8A01FEF05F0036E083600C0AC
:1009EC0008F001C000F002C001F0026A080E035CBE
:1009FC00D8A01FEF05F0036E083600C008F001C048
:100A0C0000F0016A080E035CD8A01FEF05F0036E1E
:100A1C00083600C008F0006A080E035CD8A01FEF6F
:100A2C0005F0036E0836086A0350D8A4D8902BEF53
:100A3C0005F00350D8B42BEF05F0D89002320132F8
:100A4C0000320832032E23EF05F00BBC08A03CEF5C
:100A5C0005F0D8A03CEF05F0082AD8B4002AD8B489
:100A6C00012AD8B4022A02BE66EF05F00AAE62EF84
:100A7C0005F0021E011E001E081E082AD8B4002A0A
:100A8C00D8B4012AD8B4022A62EF05F0026A016ACE
:100A9C00006A086A62EF05F00B800BAE6CEF05F094
:100AAC00026A0AAE6CEF05F0026E016E006E086E03
:100ABC000A3602326CEF05F00C6A000E6DEF05F091
:100ACC00010E0C6E000EEADC6DEF05F0FF0E02500D
:100ADC00036E0150026E0050016E0850006E120041
:100AEC000050086E0150006E0250016E0350026EF1
:100AFC00036A0B6A0C6A9E0E036E0A6A02AE93EFCF
:100B0C0005F0081E001E011E021E082AD8B4002A79
:100B1C00D8B4012AD8B4022A0A8E020E0C6E36EC16
:040B2C0001F01200C2
:100B3000086A096A000E076203641DEF06F002509E
:100B400006180A6E075003267E0ED8A0AEEF05F0F9
:100B5000035ED8B022EF06F0B2EF05F0035ED8A036
:100B600027EF06F0028E068E02C00EF001C00BF0D9
:100B700000C00DF000500402F4CF0CF0015005024B
:100B8000F4CF00F0F3CF08F00402F3500C26F45039
:100B90000822000E00220D500502F3500C26F450DE
:100BA0000822000E002202500402F3500826F450DE
:100BB000002202500502016A000E0122F3500026B5
:100BC000F45001220D500602F3500826F450002282
:100BD000026A000E012202220B500602F350002688
:100BE000F4500122000E02220E500602F35001269C
:100BF000F450022202BE05EF06F008360036013638
:100C000002360306D8B427EF06F018EF06F0D880B6
:100C1000800E08640030000E002201220222D8A0BB
:100C200018EF06F0023201320032034A22EF06F0DA
:100C30000AAE029E000E2AEF06F0010E1AEC00F03A
:100C40002AEF06F0020E0EEC00F02AEF06F0040E7A
:060C500021EC00F012008F
:0A0C5600000E82BA010E006E1200BB
:100C60009FC097F1A0C098F1A1C099F1A2C09AF1DC
:100C7000668266A221D000019F51A011A111A2118C
:100C80001AE001019751981199119A110DE1EBC0E9
:100C9000E1FFECC0E2FF060EE66EE9C000F0EAC03C
:100CA00001F048EC02F008D0010E0101975F000E40
:0A0CB000985B995B9A5BDDD7120098
:100CBA000A6A0350D8A40A800750D8A40A820A50A4
:100CCA00D8B4C0EF06F0030AD8B479EF06F00AB038
:100CDA0074EF06F006AEBEEF06F0BCEF06F002AE09
:100CEA00BCEF06F0BEEF06F00250800B0A6E029EC1
:100CFA000650800B069E0A18D8B48AEF06F00A50EE
:100D0A00D8B4BCEF06F0BEEF06F00750035CD8B4C7
:100D1A0094EF06F0D8A0B0EF06F0B6EF06F0065052
:100D2A00025CD8B49EEF06F0D8A0B0EF06F0B6EF9A
:100D3A0006F00550015CD8B4A8EF06F0D8A0B0EFD1
:100D4A0006F0B6EF06F00450005CD8B4C0EF06F027
:100D5A00D8B0B6EF06F00A52D8B4BEEF06F0BCEF30
:100D6A0006F00A52D8B4BCEF06F0BEEF06F0D880FF
:0E0D7A001200D8901200D880D8841200120007
:100D88008FC097F190C098F191C099F192C09AF1F3
:100D9800C582C5A221D000018F51901191119211E5
:100DA8001AE001019751981199119A110DE1E3C0C8
:100DB800E1FFE4C0E2FF060EE66EE1C000F0E2C02B
:100DC80001F048EC02F008D0010E0101975F000E17
:0A0DD800985B995B9A5BDDD712006F
:100DE2000C6A0E6A0250D8A40AEF07F001C002F0A2
:100DF20000C001F0006A0E860250D8A40AEF07F084
:100E020001C002F0016A0E960E880250D8B41CEF9F
:100E120007F00E50035ED8A4D8A022EF07F0D890B6
:100E220002BE28EF07F0003601360236032E11EF1C
:100E320007F022EF07F0010E0C6E1AEC00F02CEF17
:100E420007F0020E0C6E21EC00F02CEF07F0040EFE
:080E52000C6E2EEC00F0120002
:0A0E5A00000E81B0010E006E1200C0
:0A0E6400000E82B8010E006E1200AD
:0A0E6E00000E86B4010E006E1200A3
:0A0E7800000E86B2010E006E12009B
:100E8200A19A97C16AFF9FC098F1A0C099F1A1C031
:100E92009AF1A2C09BF168A423D000019F51A01136
:100EA200A111A2111CE00101985199119A119B11F3
:100EB2000FE1EBC0E1FFECC0E2FF040EE66EE9C019
:100EC20000F0EAC001F048EC02F0010E006E3CD0E6
:100ED200010E0101985F000E995B9A5B9B5BDBD769
:100EE2009FC098F1A0C099F1A1C09AF1A2C09BF154
:100EF200A1BA23D000019F51A011A111A2111CE09F
:100F02000101985199119A119B110FE1EBC0E1FF78
:100F1200ECC0E2FF040EE66EE9C000F0EAC001F0A8
:100F220048EC02F0010E006E0FD0010E0101985F35
:100F3200000E995B9A5B9B5BDBD766BC02D0006AB2
:0A0F420003D06684020E006E120058
:100F4C008FC099F190C09AF191C09BF192C09CF125
:100F5C009E96C5869EB621D000018F51901191119D
:100F6C0092111AE0010199519A119B119C110DE1FA
:100F7C00E3C0E1FFE4C0E2FF030EE66EE1C000F067
:100F8C00E2C001F048EC02F008D0010E0101995FBB
:100F9C00000E9A5B9B5B9C5BDDD70101C9CF98F17E
:100FAC009751000A02E1C58A01D0C59A9E96C58860
:100FBC008FC099F190C09AF191C09BF192C09CF1B5
:100FCC009EB621D000018F519011911192111AE00F
:100FDC00010199519A119B119C110DE1E3C0E1FFA4
:100FEC00E4C0E2FF030EE66EE1C000F0E2C001F0E7
:100FFC0048EC02F008D0010E0101995F000E9A5BDB
:0C100C009B5B9C5BDDD798C100F01200DC
:081018000B6A0B86FF0E1200AB
:0C102000000E0F0121B3010E006E120043
:10102C009E9697C1C9FF8FC098F190C099F191C05D
:10103C009AF192C09BF1C7A423D000018F5190115B
:10104C00911192111CE00101985199119A119B1167
:10105C000FE1E3C0E1FFE4C0E2FF040EE66EE1C085
:10106C0000F0E2C001F048EC02F0010E006E3CD042
:10107C00010E0101985F000E995B9A5B9B5BDBD7BD
:10108C008FC098F190C099F191C09AF192C09BF1E8
:10109C009EB623D000018F519011911192111CE03A
:1010AC000101985199119A119B110FE1E3C0E1FFD5
:1010BC00E4C0E2FF040EE66EE1C000F0E2C001F015
:1010CC0048EC02F0010E006E0FD0010E0101985F8A
:1010DC00000E995B9A5B9B5BDBD7C5BC02D0006AA8
:0A10EC0003D0C584020E006E12004E
:0A10F600000E80B2010E006E120021
:0A110000000EA4BA010E006E1200EA
:0A110A00000E82B0010E006E12000C
:0A111400000E80B0010E006E120004
:10111E001DCF01F00F0122A302D02299228901C016
:04112E0000F01200BB
:101132009FC099F1A0C09AF1A1C09BF1A2C09CF1FD
:10114200A19A6686A1BA21D000019F51A011A111D6
:10115200A2111AE0010199519A119B119C110DE102
:10116200EBC0E1FFECC0E2FF030EE66EE9C000F067
:10117200EAC001F048EC02F008D0010E0101995FCB
:10118200000E9A5B9B5B9C5BDDD701016ACF98F1F5
:101192009751000A02E1668A01D0669AA19A66888E
:1011A2009FC099F1A0C09AF1A1C09BF1A2C09CF18D
:1011B200A1BA21D000019F51A011A111A2111AE0E0
:1011C200010199519A119B119C110DE1EBC0E1FFB4
:1011D200ECC0E2FF030EE66EE9C000F0EAC001F0E7
:1011E20048EC02F008D0010E0101995F000E9A5BF3
:0C11F2009B5B9C5BDDD798C100F01200F5
:1011FE00AECF01F0ABA202D0AB98AB8801C000F02D
:02120E001200CC
:0A121000000EACB2010E006E1200D9
:0A121A00000E82B8010E006E1200F3
:0A122400000E82BC010E006E1200E5
:0A122E00000E9EBA010E006E1200C1
:101238008FC099F190C09AF191C09BF192C09CF136
:101248000101976B986B9851120802E197518E082B
:1012580009E32EEC02F0005201E004D00101974BA3
:10126800982BF1D70101120E985D02E18F0E975D60
:1012780003E37B0E006E27D0C580C5A023D00001F4
:101288008F519011911192111CE0010199519A11FD
:101298009B119C110FE1E3C0E1FFE4C0E2FF050EE2
:1012A800E66EE1C000F0E2C001F048EC02F0010E89
:1012B800006E09D0010E0101995F000E9A5B9B5BDD
:0812C8009C5BDBD7006A1200F9
:0A12D000000E82B2010E006E120043
:0A12DA00000E82B6010E006E120035
:0A12E400000E84B0010E006E12002F
:1012EE009FC099F1A0C09AF1A1C09BF1A2C09CF140
:1012FE000101976B986B9851120802E197518E0875
:10130E0009E33BEC02F0005201E004D00101974BDF
:10131E00982BF1D70101120E985D02E18F0E975DA9
:10132E0003E37B0E006E27D0668066A023D00001FB
:10133E009F51A011A111A2111CE0010199519A1106
:10134E009B119C110FE1EBC0E1FFECC0E2FF050E1B
:10135E00E66EE9C000F0EAC001F048EC02F0010EC2
:10136E00006E09D0010E0101995F000E9A5B9B5B26
:08137E009C5BDBD7006A120042
:0A138600000E82BA010E006E120084
:0A139000000E82B6010E006E12007E
:0A139A00000E82B8010E006E120072
:1013A40003500718D8A4E6EF09F002500618D8A491
:1013B400E6EF09F001500518D8A4E6EF09F0005053
:0E13C4000418D8B4D8841200D8941200120075
:1013D200170E046E8AC100F08BC101F08CC102F0BD
:1013E2008DC103F0045007E00332023201320032B1
:1013F200039EFF0FF8D7FF0E0016000E011600C065
:1014020092F101C093F17F0E005C026E000E015852
:10141200036E02C092F103C093F1800E0318006EB6
:10142200800E005C02E1000E025C21E2046A056AA1
:10143200066A076A8AC100F08BC101F08CC102F012
:101442008DC103F039DC010ED8B0000E006E0052DF
:1014520009E0000E006E000E016E800E026E7F0E1D
:10146200036E5CD0006A016A026A036A57D0010106
:101472009351000802E19251180809E28AC100F072
:101482008BC101F08CC102F08DC103F047D08AC13B
:1014920000F08BC101F08CC102F08DC103F0DEECD3
:1014A20004F076EC05F000C08EF101C08FF102C0AD
:1014B20090F103C091F100C004F001C005F002C038
:1014C20006F003C007F08AC100F08BC101F08CC1A5
:1014D20002F08DC103F05DEC06F0010ED8B0000EF3
:1014E200006E005213E0000E046E000E056E000E38
:1014F200066E7F0E076E8EC100F08FC101F090C1A3
:1015020002F091C103F0D9EC04F008D08EC100F0D2
:0E1512008FC101F090C102F091C103F01200F0
:101520000B6A0350D8B4D6EF0AF002500A6E028E4E
:101530008E0E035E03AEDAEF0AF0036C080E035C56
:10154000D8A0B5EF0AF0036E013602C001F0026ABE
:10155000080E035CD8A0B5EF0AF0036E0136016AED
:101560000350D8A4D890BFEF0AF00350D8B4BFEF0F
:101570000AF0D89002320132032EB9EF0AF00BBC08
:1015800001A0CCEF0AF0D8A0CCEF0AF0012AD8B421
:10159000022A02BEE9EF0AF00AAEEFEF0AF0021EDD
:1015A000011E012AD8B4022AEFEF0AF0026A016A8A
:1015B000EFEF0AF00B800BAEF3EF0AF0026A0AAE0F
:1015C000F3EF0AF0FF0E026E016E0A360232F3EFFD
:1015D0000AF0010E0C6E54EC02F0F5EF0AF0000E6A
:1015E0000C6EF5EF0AF0FF0E0C6E0150006E02500B
:0415F000016E120076
:1015F4008A0E0101906F010E916F030E9025D96E32
:10160400000E9121DA6EDE508E25016E000E8F21C0
:10161400026E01C08EF102C08FF1800E0218006EBE
:10162400800E005C02E1000E015C05E2006A016AC2
:10163400026A036A3FD0800E006E800E8F19005C30
:1016440002E18E51FF0826E2046A056A066A076A07
:101654008AC100F08BC101F08CC102F08DC103F08E
:101664005DEC06F0010ED8B0000E006E005209E0E9
:10167400FF0E006EFF0E016EFF0E026EFE0E036E75
:1016840019D0FF0E006EFF0E016E7F0E026EFE0E6D
:10169400036E10D0030E9025E16E000E9121E26ED0
:1016A4008EC1E6FF8AC100F08BC101F08CC102F04B
:0616B4008DC103F01200DD
:1016BA000450000A12E10550000A0FE10650000A20
:1016CA000CE10750000A09E1FF0E006EFF0E016EE1
:1016DA007F0E026EFF0E036EA7D0086A096A0750D2
:1016EA00D8B408EF0CF00350D8B40CEF0CF0025049
:1016FA0006180A6E028E068E0E6A02C008F001C033
:10170A000CF000C00DF004500D5E0550D8A0053C49
:10171A000C5E0650D8A0063C085E086A0C6A0D6A80
:10172A00D8A09FEF0BF0D890023201320032083273
:10173A00010E0E6E0750035ED8A0ACEF0BF07E0EC2
:10174A000E240326D8B011EF0CF0B2EF0BF07E0E88
:10175A000E240326D8A016EF0CF0180E0B6E0D36C9
:10176A000C3608360036013602360E360450005E54
:10177A000550D8A0053C015E0650D8A0063C025E82
:10178A0006340E120EA0CDEF0BF00D80D8EF0BF041
:10179A00045000260550D8B0053C01260650D8B0A2
:1017AA00062802260D900B2EB4EF0BF0FEEF0BF07D
:1017BA00D8900036013602360E360450005E0550C7
:1017CA00D8A0053C015E0650D8A0063C025E06344D
:1017DA000E10010B0D26D8B00C2AD8B4082AD8A4AA
:1017EA00FEEF0BF008320C320D32032AD8B411EF97
:1017FA000CF00AAE089E0850026E0C50016E0D5095
:10180A00006E19EF0CF0010E02DC19EF0CF0020E5B
:10181A001AEC00F019EF0CF0040E0EEC00F019EFC0
:0A182A000CF0080E21EC00F0120093
:1018340091C100F092C101F0000E010192BFFF0EB0
:10184400026E036E0036009001360236033600360F
:1018540000900136023603368E510024F66E8F5105
:101864000120F76E90510220F86E0900F5CF93F134
:101874000900F5CF94F10900F5CF95F10900F5CFF2
:1018840096F19151921149E08AC100F08BC101F0A7
:101894008CC102F08DC103F093C104F094C105F032
:1018A40095C106F096C107F098EC05F0010E915F22
:1018B400000E925B91C104F092C105F0000E92BF3C
:1018C400FF0E066E076E043604900536063607369C
:1018D400043604900536063607368E510424F66E17
:1018E4008F510520F76E90510620F86E0900F5CF50
:1018F40004F00900F5CF05F00900F5CF06F0090062
:10190400F5CF07F062EC02F000C093F101C094F14E
:1019140002C095F103C096F1B4D793C100F094C10D
:0C19240001F095C102F096C103F0120022
:101930008A0E046E010E056E030E0424E96E000E7D
:101940000520EA6E7E0EEE5C006E016A000E015A02
:101950008EC1E1FF8FC1E2FF00C0E6FF01C0E6FFDC
:10196000030E0424E16E000E0520E26E7E0EE66E8C
:101970008AC100F08BC101F08CC102F08DC103F06F
:02198000120053
:1019820000C008F00150006E016A026A036A0B6A25
:101992000C6A016A026A036A960E036E0A6A00AE54
:1019A200D9EF0CF0081E001E082AD8B4002A0A8EAD
:1019B20000C001F008C000F0086A026AF1EC06F00B
:0219C200120011
:1019C4000101886B896B81C186F182C187F180C175
:1019D40000F000360090CFC0E1FFD0C0E2FF00C0AD
:1019E400E6FFCDC000F0CEC001F048EC02F000509C
:1019F40001018813000E891383C100F084C101F032
:101A0400010E835F000E845B0050011018E0CFC00C
:101A1400E1FFD0C0E2FF86C1E9FF87C1EAFFEECF54
:101A2400E6FFCDC000F0CEC001F048EC02F000505B
:101A340001018813000E8913864B872BDDD785514E
:101A4400000A06E1D9C000F0DAC001F048EC02F067
:101A540001018551010A06E1DDC000F0DEC001F09C
:0E1A640048EC02F088C100F089C101F01200C8
:101A72000101886B896B81C186F182C187F180C1C6
:101A820000F0003600900080CFC0E1FFD0C0E2FF3E
:101A920000C0E6FFCDC000F0CEC001F048EC02F07D
:101AA200005001018813000E8913010E835F000E9E
:101AB200845B8351841116E0C7C0E1FFC8C0E2FF16
:101AC200010EE66EC5C000F0C6C001F048EC02F09F
:101AD20086C1E1FF87C1E2FF00C0E6FF0101864B3C
:101AE200872BE3D7C7C0E1FFC8C0E2FFE66AC5C0E3
:101AF20000F0C6C001F048EC02F086C1E1FF87C1E8
:101B0200E2FF00C0E6FF01018551000A06E1D9C0EB
:101B120000F0DAC001F048EC02F001018551010A3F
:101B220006E1DDC000F0DEC001F048EC02F088C141
:081B320000F089C101F012006E
:101B3A00D00E01010D6F010E0E6F9D0E0F6F010E7B
:101B4A00106F1E0E096F110E0A6F000E0B6F000E3A
:101B5A000C6F000E056F110E066F000E076F000E58
:101B6A00086F200E016F100E026F000E036F000E39
:101B7A00046F0F01218B900E226F98849892A4AA69
:0A1B8A0003D01DCF00F0FBD71200BE
:101B94000101806B816BC1C000F0C2C001F048EC50
:101BA40002F000C080F1000E0101816F80C100F0DD
:061BB40081C101F01200E6
:101BBA005C0E0001D56F040ED66F000ED76F000EB3
:101BCA00D86F380ED16F120ED26F000ED36F000E7F
:101BDA00D46F880EF56F0D0EF66F000EF76F000EBC
:101BEA00F86F4C0EF96F0F0EFA6F970EFB6F010E1E
:101BFA00FC6F2C0EED6F100EEE6F970EEF6F010E4D
:101C0A00F06FB80EF16F090EF26F000EF36F000E4F
:101C1A00F46F949894968B988B9694889486C79E22
:081C2A00C79C380EC66E1200C3
:101C3200E00E01010D6F010E0E6F9D0E0F6F010E72
:101C4200106FFE0E096F110E0A6F000E0B6F000E61
:101C52000C6F2E0E056F120E066F000E076F000E30
:101C6200086F100E016F120E026F000E036F000E4E
:101C7200046FAC8A900EAB6E948E949C9EAA03D095
:081C8200AECF00F0FBD7120009
:101C8A0080C104F081C105F082C106F083C107F06A
:101C9A00006A016A026A036A5DEC06F0000ED8B0B7
:101CAA00010E006E005205E0006A016A026A036AC8
:101CBA006AD080C18AF181C18BF182C18CF183C162
:101CCA008DF1840E01018E6F010E8F6F2CDE000ED6
:101CDA00046E000E056E000E066E800E076E98ECFE
:101CEA0005F0000E046E000E056E000E066E7F0EE5
:101CFA00076ED9EC04F000C080F101C081F102C086
:101D0A0082F103C083F1010E845F000E855B00C07F
:101D1A008AF101C08BF102C08CF103C08DF1F70E7C
:101D2A008E6F3B0E8F6F000E906F080E916F000E34
:101D3A00926F7BDD00C086F101C087F102C088F195
:101D4A0003C089F186C180F187C181F188C182F11E
:101D5A0089C183F184C100F085C101F00DDE180E3E
:101D6A00046E720E056E310E066E7E0E076E98ECCC
:101D7A0005F086C104F087C105F088C106F089C163
:081D8A0007F062EC02F0120008
:101D9200046A056A066A076A80C100F081C101F01F
:101DA20082C102F083C103F0D2EC09F0010ED8A483
:101DB200000E006E005209E0000E006E000E016E71
:101DC200000E026E7F0E036EFFD080C104F081C14F
:101DD20005F082C106F083C107F0FE0E006ED40E3C
:101DE200016E320E026E850E036E5DEC06F0010E80
:101DF200D8B0000E006E005209E0FF0E006EFF0E1A
:101E0200016E7F0E026EFE0E036EDED0500E046E69
:101E1200AC0E056EAE0E066E850E076E80C100F02A
:101E220081C101F082C102F083C103F05DEC06F0D2
:101E3200010ED8B0000E006E005205E0006A016A81
:101E4200026A036AC1D0046A056A066A076A80C127
:101E520000F081C101F082C102F083C103F05DECA8
:101E620006F0010ED8B0000E006E00C086F10052DE
:101E720002E00101827F80C100F081C101F082C1D4
:101E820002F083C103F03B0E046EAA0E056E380EFB
:101E9200066E7F0E076E98EC05F000C080F101C05F
:101EA20081F102C082F103C083F100C08AF101C056
:101EB2008BF102C08CF103C08DF1E9EC09F090ECDA
:101EC2000AF000C084F101C085F15ADD00C004F0BF
:101ED20001C005F002C006F003C007F080C100F0A7
:101EE20081C101F082C102F083C103F0D9EC04F098
:101EF20000C080F101C081F102C082F103C083F110
:101F020000C08AF101C08BF102C08CF103C08DF1D7
:101F1200CF0E01018E6F3B0E8F6F000E906F090E78
:101F2200916F000E926F85DC00C08AF101C08BF1C7
:101F320002C08CF103C08DF184C18EF185C18FF195
:101F4200FAEC0AF000C080F101C081F102C082F116
:101F520003C083F1865330E0FF0E046EFF0E056E60
:101F62007F0E066EFE0E076E80C100F081C101F089
:101F720082C102F083C103F0D2EC09F0010ED8A4B1
:101F8200000E006E005205E0006A016A026A036AEE
:101F92001BD080C104F081C105F082C106F083C16B
:101FA20007F0000E006E000E016E000E026E7F0E34
:101FB200036E5DEC0BF008D080C100F081C101F02E
:0A1FC20082C102F083C103F0120097
:101FCC00300E01017325006E000E7421016E000E9F
:101FDC007521026E1C0E0024F66E000E0120F76EA9
:101FEC00000E0220F86E0900F5CFC9F00900F5CFFC
:101FFC00CAF00900F5CFCBF00900F5CFCCF01200F8
:10200C0073C176F174C177F175C178F10BD0A00E64
:10201C00C86ECDDD44D0280EC86EC9DD40D0040E8C
:10202C00006E3FD076C1F6FF77C1F7FF78C1F8FF9D
:10203C000900F5CF01F00900F5CF02F00900F5CF4A
:10204C0003F00900F5CF04F00450000A08E1035036
:10205C00010A05E10250860A02E10150A00AD7E00C
:10206C0076C1F6FF77C1F7FF78C1F8FF0900F5CF0D
:10207C0001F00900F5CF02F00900F5CF03F00900DB
:10208C00F5CF04F00450000A08E10350060A05E1FC
:10209C0002501A0A02E10150800ABDE0C0D7000EBE
:0420AC00006E1200B0
:1020B00073C176F174C177F175C178F10BD0A00EC0
:1020C000C86E7BDD44D0280EC86E77DD40D0040E8C
:1020D000006E3FD076C1F6FF77C1F7FF78C1F8FFF9
:1020E0000900F5CF01F00900F5CF02F00900F5CFA6
:1020F00003F00900F5CF04F00450000A08E1035092
:10210000010A05E10250860A02E10150A00AD7E067
:1021100076C1F6FF77C1F7FF78C1F8FF0900F5CF68
:1021200001F00900F5CF02F00900F5CF03F0090036
:10213000F5CF04F00450000A08E10350060A05E157
:1021400002501A0A02E10150800ABDE0C0D7000E19
:04215000006E12000B
:1021540073C1F6FF74C1F7FF75C1F8FF0900F5CF2D
:10216400C1F00900F5CFC2F00900F5CFC3F00900B2
:10217400F5CFC4F0040E01017325F66E000E742130
:10218400F76E000E7521F86E0900F5CFD9F009003D
:10219400F5CFDAF00900F5CFDBF00900F5CFDCF07C
:1021A400080E7325F66E000E7421F76E000E75216D
:1021B400F86E0900F5CFDDF00900F5CFDEF0090077
:1021C400F5CFDFF00900F5CFE0F00C0E7325F66EC5
:1021D400000E7421F76E000E7521F86E0900F5CF1C
:1021E400CDF00900F5CFCEF00900F5CFCFF009000E
:1021F400F5CFD0F0100E7325F66E000E7421F76E35
:10220400000E7521F86E0900F5CFC5F00900F5CF71
:10221400C6F00900F5CFC7F00900F5CFC8F01200E9
:1022240038D00F0120870D0E1F6F040E1E6F2185FD
:1022340082DC7ED00F012087060E1F6F820E1E6F78
:10224400218579DC75D00F012087030E1F6F400EA6
:102254001E6F218570DC6CD00F012087010E1F6F6B
:10226400A00E1E6F218567DC63D00F012087010E4D
:102274001F6F150E1E6F21855EDC5AD00F0120875B
:102284001F6B8A0E1E6F218556DC52D0060E006E1F
:1022940059D0000E006E0101761908E1005075193D
:1022A40005E1120E741902E17351C00ABAE0000E7E
:1022B400006E761908E10050751905E1250E7419B0
:1022C40002E17351800AB6E0000E006E761908E14F
:1022D4000050751905E14B0E741902E17351000A9F
:1022E400B2E0000E006E761908E10050751905E1A0
:1022F400960E741902E17351000AAEE0000E006EEE
:10230400761908E10050751905E1E10E741902E12E
:102314007351000AAAE07651000A08E17551010AD6
:1023240005E17451C20A02E17351000AA7E0AED775
:10233400D00E0001E56F010EE66F9D0EE76F010EF2
:06234400E86F006A1200C0
:10234A0021D0CF0EAF6EAC946FDC6BD0670EAF6E40
:10235A00AC946ADC66D0CF0EAF6EAC8465DC61D01B
:10236A00670EAF6EAC8460DC5CD0440EAF6EAC849A
:10237A005BDC57D0220EAF6EAC8456DC52D0060E10
:10238A00006E59D00101000E006E761908E1005066
:10239A00751905E1120E741902E17351C00AD1E0F0
:1023AA00000E006E761908E10050751905E1250E38
:1023BA00741902E17351800AC9E0000E006E7619A1
:1023CA0008E10050751905E14B0E741902E17351C9
:1023DA00000AC1E0000E006E761908E10050751976
:1023EA0005E1960E741902E17351000AB9E0000E74
:1023FA00006E761908E10050751905E1E10E7419AD
:10240A0002E17351000AB1E07651000A08E1755100
:10241A00010A05E17451C20A02E17351000AAAE0F5
:10242A00AED7E00E0001E56F010EE66F9D0EE76F75
:08243A00010EE86F006A1200B8
:1024420027D0CF0EAF6EAC9419EC0EF070D0670EA1
:10245200AF6EAC9419EC0EF06AD0CF0EAF6EAC84B6
:1024620019EC0EF064D0670EAF6EAC8419EC0EF06E
:102472005ED0440EAF6EAC8419EC0EF058D0220E32
:10248200AF6EAC8419EC0EF052D0060E006E59D02D
:102492000101000E006E761908E10050751905E180
:1024A200120E741902E17351C00ACBE0000E006EE5
:1024B200761908E10050751905E1250E741902E13B
:1024C2007351800AC4E0000E006E761908E10050D4
:1024D200751905E14B0E741902E17351000ABDE052
:1024E200000E006E761908E10050751905E1960E8E
:1024F200741902E17351000AB6E0000E006E7619FB
:1025020008E10050751905E1E10E741902E17351F9
:10251200000AAFE07651000A08E17551010A05E1AF
:102522007451C20A02E17351000AA9E0AED7E00E6B
:102532000001E56F010EE66F9D0EE76F010EE86F79
:04254200006A120019
:1025460073C176F174C177F175C178F10DD0A00E23
:10255600C86EDDEC0DF045D0280EC86EDDEC0DF032
:1025660040D0040E006E3FD076C1F6FF77C1F7FF6C
:1025760078C1F8FF0900F5CF01F00900F5CF02F0A8
:102586000900F5CF03F00900F5CF04F00450000A66
:1025960008E10350010A05E10250860A02E10150F2
:1025A600A00AD5E076C1F6FF77C1F7FF78C1F8FF3C
:1025B6000900F5CF01F00900F5CF02F00900F5CFCB
:1025C60003F00900F5CF04F00450000A08E10350B7
:1025D600060A05E102501A0A02E10150800ABCE02F
:0825E600C0D7000E006E1200C8
:1025EE0027D0CF0EAF6EAC9419EC0EF070D0670EF4
:1025FE00AF6EAC9419EC0EF06AD0CF0EAF6EAC8409
:10260E0019EC0EF064D0670EAF6EAC8419EC0EF0C0
:10261E005ED0440EAF6EAC8419EC0EF058D0220E84
:10262E00AF6EAC8419EC0EF052D0060E006E59D07F
:10263E000101000E006E761908E10050751905E1D2
:10264E00120E741902E17351C00ACBE0000E006E37
:10265E00761908E10050751905E1250E741902E18D
:10266E007351800AC4E0000E006E761908E1005026
:10267E00751905E14B0E741902E17351000ABDE0A4
:10268E00000E006E761908E10050751905E1960EE0
:10269E00741902E17351000AB6E0000E006E76194D
:1026AE0008E10050751905E1E10E741902E173514C
:1026BE00000AAFE07651000A08E17551010A05E102
:1026CE007451C20A02E17351000AA9E0AED7E00EBE
:1026DE000001E56F010EE66F9D0EE76F010EE86FCC
:0426EE00006A12006C
:0E26F200C9C000F0CAC001F048EC02F01200AE
:102700000050086E0150006E016A026A036A0B6A8B
:102710000C6A960E036E0A6A00C001F008C000F051
:0A272000086A026AF1EC06F01200EC
:10272A005DD0010174B102D0929401D092840F015C
:10273A0025957AD0010174B102D0969601D0968679
:10274A0073D0010174B102D0969401D096846CD0F2
:10275A00010174B102D0949601D0948665D001012A
:10276A0074B102D0949801D094885ED0010174B1FA
:10277A0002D0949A01D0948A57D0010174B102D040
:10278A00989001D0988050D0010174B102D09394EE
:10279A0001D0938449D0010174B102D0989401D038
:1027AA0098840F01239540D0010174B102D0989208
:1027BA0001D098820F01239337D0010174B102D05E
:1027CA00949601D0948630D0010174B102D09498C5
:1027DA0001D0948829D0010E006E28D001017351CE
:1027EA00000A9FE07351010AA5E07351020AA9E0A9
:1027FA007351030AADE07351040AB1E07351050A3B
:10280A00B5E07351060AB9E07351070ABDE0735186
:10281A00080AC1E07351090AC7E073510A0ACDE0F8
:0E282A0073510B0AD1E0D7D7000E006E1200DA
:1028380059D0010174B102D0929201D092820F0155
:10284800259376D0010174B102D0929801D0928874
:102858006FD0010174B102D0969201D0968268D0EF
:10286800010174B102D0949601D0948661D001011F
:1028780074B102D0949801D094885AD0010174B1EF
:1028880002D0949A01D0948A53D0010174B102D035
:10289800949401D094844CD0010174B102D09392E5
:1028A80001D0938245D0010174B102D0949E01D029
:1028B800948E3ED0010174B102D0949C01D0948CC6
:1028C80037D0010174B102D0949601D0948630D0EB
:1028D800010174B102D0949801D0948829D0010ED6
:1028E800006E28D001017351000AA3E07351010A58
:1028F800A9E07351020AADE07351030AB1E07351C4
:10290800040AB5E07351050AB9E07351060ABDE03F
:102918007351070AC1E07351080AC5E07351090AE7
:10292800C9E073510A0ACDE073510B0AD1E0D7D739
:06293800000E006E12000B
:10293E0073C174F1CAEC0DF0C0C080F1740E816FDA
:10294E00010E826F010E836F000E846F010E856F74
:10295E00E2EC0CF0C0C080F1750E0101816F010E2A
:10296E00826F020E836F000E846F856B39EC0DF053
:10297E0075C177F1000E0101786F77C101F0006A21
:10298E0000C077F101C078F176510012000E0112ED
:0A299E0000C077F101C078F11200CB
:1029A80059D0010174B102D0929001D092800F01E8
:1029B800259176D0010174B102D0949001D0948011
:1029C8006FD0010174B102D0969001D0968068D082
:1029D800010174B102D0949601D0948661D00101AE
:1029E80074B102D0949801D094885AD0010174B17E
:1029F80002D0949A01D0948A53D0010174B102D0C4
:102A0800949201D094824CD0010174B102D0939079
:102A180001D0938045D0010174B102D0949E01D0B9
:102A2800948E3ED0010174B102D0949C01D0948C54
:102A380037D0010174B102D0949601D0948630D079
:102A4800010174B102D0949801D0948829D0010E64
:102A5800006E28D001017351000AA3E07351010AE6
:102A6800A9E07351020AADE07351030AB1E0735152
:102A7800040AB5E07351050AB9E07351060ABDE0CE
:102A88007351070AC1E07351080AC5E07351090A76
:102A9800C9E073510A0ACDE073510B0AD1E0D7D7C8
:062AA800000E006E12009A
:102AAE00E7C0E1FFE8C0E2FF73C1E9FF74C1EAFFCE
:102ABE00EECFE6FFE5C000F0E6C001F048EC02F014
:042ACE00006A120088
:102AD20073C176F175C100F0016A00C077F1FF0E93
:102AE20001017415786FCAEC0DF0C0C080F1760E4A
:102AF200816F010E826F030E836F000E846F856BF0
:062B0200E2EC0CF01200F1
:102B080001017F6B046A056A066A076A77C100F0EB
:102B180078C101F079C102F07AC103F0D2EC09F072
:102B2800010ED8A4000E006E005209E0000E006EDF
:102B3800000E016E000E026E7F0E036EA8D0046AAE
:102B4800056A066A076A73C100F074C101F075C1AD
:102B580002F076C103F0D2EC09F0010ED8A4000E01
:102B6800006E005205E0006A016A026A036A8FD0AB
:102B7800046A056A066A076A73C100F074C101F045
:102B880075C102F076C103F05DEC06F0010ED8B015
:102B9800000E006E00522DE077C100F078C101F000
:102BA80079C102F07AC103F0DEEC04F000C07BF1D9
:102BB80001C07CF102C07DF103C07EF176EC05F026
:102BC80077C104F078C105F079C106F07AC107F041
:102BD800D2EC09F0000ED8A4010E006E005205E0F8
:102BE800006A016A026A036A52D0010E7B157F6F80
:102BF800757F73C180F174C181F175C182F176C1AD
:102C080083F145EC0EF000C073F101C074F102C00D
:102C180075F103C076F177C104F078C105F079C188
:102C280006F07AC107F098EC05F000C073F101C016
:102C380074F102C075F103C076F100C080F101C0E3
:102C480081F102C082F103C083F1C9EC0EF000C02B
:102C580073F101C074F102C075F103C076F101018E
:102C68007F530DE0000E7319006E000E7419016E8B
:102C7800800E7519026E000E7619036E08D073C1A6
:102C880000F074C101F075C102F076C103F01200C2
:102C980073C104F074C105F004C002F005C003F06C
:102CA800044A052A75C100F076C101F00101754B8F
:102CB800762B00C0E9FF01C0EAFF02C0E1FF03C0B4
:102CC800E2FFEECFE6FF02C0E9FF03C0EAFFEE52E3
:0E2CD80001E0E2D773C100F074C101F01200F8
:102CE6000D6A086A0050D8B4000C04180A6E0ABEB1
:102CF6000D1E0B6A04AE02D0041E042A00AE02D0DA
:102D0600001E002A005004100A6E0ABE1FD004508E
:102D1600085E003600340836045008260036060ED3
:102D26000C6E00340836045000B0085E00A0082679
:102D360000360C2EF6D700A008260BB015D00DAE27
:102D4600000C001E002A081E082A000C04AE09D03A
:102D560000BE04D00050086E006AF1D7006A002A4F
:102D6600000C001E0B2AD3D7082A0450085CD8A4EE
:0E2D7600E6D7086A002A00AEE2D7FF0C120072
:102D840015D068C173F169C174F10CDE1AD068C141
:102D940073F169C174F14EDD14D068C173F169C176
:102DA40074F1C1DC0ED0010E006E0BD0010167512D
:102DB400000AE7E06751010AEAE06751020AEDE020
:042DC400F2D7120030
:102DC8001ED068C173F169C174F16AC175F158EC1C
:102DD80010F020D068C173F169C174F16AC175F14E
:102DE80006EC10F017D068C173F169C174F16AC1BB
:102DF80075F1A3EC12F00ED0010E006E0BD001019C
:102E08006751000ADEE06751010AE4E06751020AEF
:062E1800EAE0F2D712000F
:102E1E002FD068C173F169C174F16AC175F16BC1CC
:102E2E0076F121EC12F032D068C173F169C174F100
:102E3E006AC175F16BC176F1A5EC11F027D068C1AE
:102E4E0073F169C174F16AC175F16BC176F112EC5F
:102E5E0011F01CD068C173F169C174F16AC175F1CA
:102E6E006BC176F1F7EC12F011D0010E006E0ED0A0
:102E7E0001016751000ACDE06751010AD5E06751A3
:0E2E8E00020ADDE06751100AE5E0EFD71200FE
:102E9C000101716B726B67C16DF168C16EF169C133
:102EAC006FF16AC170F17051FF0A08E16F51FF0AAE
:102EBC0005E16E51FF0A02E16D51FF0A0CE16BC195
:102ECC0073F16CC174F1950E756F000E766FDEDECA
:102EDC00030E006EF1D1010E0001FF6F01016FAF07
:102EEC0010D0800E6F19006E00C06FF10001FF2B27
:102EFC006BC1E1FF6CC1E2FF2D0EE66E01016B4B65
:102F0C006C2B000E006E701908E100506F1905E172
:102F1C0000506E1902E16D51000A0BE16BC173F1A7
:102F2C006CC174F1930E756F000E766FAFDE006A94
:102F3C00C3D17051FF0A08E16F51000A05E16E51CF
:102F4C00000A02E16D51000A0CE16BC173F16CC116
:102F5C0074F19B0E756F000E766F98DEFFC000F05B
:102F6C00ABD1000E046E000E056E000E066E7F0EC9
:102F7C00076E6DC100F06EC101F06FC102F070C13F
:102F8C0003F05DEC06F0010ED8B0000E006E00529E
:102F9C001CE06DC100F06EC101F06FC102F070C198
:102FAC0003F0000E046E000E056E200E066E820EEF
:102FBC00076E98EC05F000C06DF101C06EF102C017
:102FCC006FF103C070F17207CCD7000E046E000EC7
:102FDC00056E200E066E820E076E6DC100F06EC17E
:102FEC0001F06FC102F070C103F05DEC06F0000E51
:102FFC00D8B0010E006E00521CE06DC100F06EC125
:10300C0001F06FC102F070C103F0CD0E046ECC0E56
:10301C00056E4C0E066E7B0E076E98EC05F000C02C
:10302C006DF101C06EF102C06FF103C070F1722B33
:10303C00CCD7FF0E6D15086EFF0E6E15096E7F0E48
:10304C006F150A6E000E70150B6E08C004F009C0E7
:10305C0005F00AC006F00BC007F0043604900536E4
:10306C0006360736000E6D15006E000E6E15016EDD
:10307C00000E6F15026EFF0E7015036E00C06DF121
:10308C0001C06EF102C06FF103C070F104506D11FC
:10309C00006E05506E11016E06506F11026E0750D6
:1030AC007011036E00C06DF101C06EF102C06FF1C2
:1030BC0003C070F17F0E705D006E00C000F1010E58
:1030CC00706F00C004F06DC100F06EC101F06FC1F3
:1030DC0002F070C103F0045007E000360090013696
:1030EC0002360336FF0FF8D700C06DF101C06EF148
:1030FC0002C06FF103C070F16BC1E1FF6CC1E2FF64
:10310C007051300FE66E6B4B6C2B800E7219006E8B
:10311C00800E010A005C08E3800E060A006E800E29
:10312C007219005C01E30AD06BC1E1FF6CC1E2FFD4
:10313C002E0EE66E6B4B6C2B010E716F060E006F34
:10314C000051000A54E0706B6DC100F06EC101F0CB
:10315C006FC102F070C103F00036009001360236E8
:10316C000336003600900136023603366D510026C8
:10317C006E5101226F5102227051032200C06DF179
:10318C0001C06EF102C06FF103C070F16DC100F0AF
:10319C006EC101F06FC102F070C103F000360090F7
:1031AC0001360236033600C06DF101C06EF102C06B
:1031BC006FF103C070F16BC1E1FF6CC1E2FF7051A4
:1031CC00300FE66E6B4B6C2B7151000A0EE17207DF
:1031DC007251000A0AE16BC1E1FF6CC1E2FF2E0ED5
:1031EC00E66E6B4B6C2B010E716F0007A9D7FF0EAF
:1031FC006B25E96EFF0E6C21EA6EEE50300A05E18C
:10320C00010E6B5F000E6C5BF2D7FF0E6B25E96E47
:10321C00FF0E6C21EA6EEE502E0A04E1010E6B5F7C
:10322C00000E6C5B7251000A41E06BC1E1FF6CC196
:10323C00E2FF650EE66E6B4B6C2B800E7219006E06
:10324C00800E000A005C0BE26BC1E1FF6CC1E2FF77
:10325C002D0EE66E6B4B6C2B72510008726F72C1A7
:10326C0000F1800E090A006E800E7219005C0EE2ED
:10327C000A0E046E00C100F030DD6BC1E1FF6CC1C1
:10328C00E2FF0050300FE66E6B4B6C2B0A0E046E97
:10329C0000C100F022DD08C000F06BC1E1FF6CC181
:1032AC00E2FF0050300FE66E6B4B6C2B6BC1E1FFF5
:0A32BC006CC1E2FFE66A006A12002E
:1032C60067C16AF168C16BF10D0E0001FF6F0A0E4E
:1032D6000101006F3AD06AC173F16BC174F157EC0A
:1032E60015F03ED06AC1E9FF6BC1EAFFEE520AE073
:1032F6006AC173F16BC174F157EC15F001016A4BA9
:103306006B2BF0D72DD06AC1E9FF6BC1EAFFEE52F5
:103316000AE06AC173F16BC174F157EC15F0010153
:103326006A4B6B2BF0D70101FF0E736F000E746FA3
:1033360057EC15F0000E0101736F010E746F57EC18
:1033460015F00ED0060E006E0CD001016951000A70
:10335600C2E06951010AC6E06951020AD4E0F2D717
:04336600006A1200E7
:10336A0067C100F068C101F080EC13F000C06BF196
:10337A0001C06CF102C06DF103C06EF169C1FFF0CA
:10338A006AC100F100C073F101C074F102C075F1A5
:10339A0003C076F1790E0101776FE90E786F160E88
:1033AA00796F7F0E7A6F84EC15F0EC0E046E510E75
:1033BA00056E0C0E066E810E076E98EC05F0FFC0C6
:1033CA00E1FF00C1E2FF00C0E6FF01C0E6FF02C064
:1033DA00E6FF03C0E6FF040E69250001FF6F000E39
:1033EA0001016A21006F6BC173F16CC174F16DC187
:1033FA0075F16EC176F1640E776F3B0E786F170E1A
:10340A00796F800E7A6F84EC15F0FFC0E1FF00C17E
:10341A00E2FF00C0E6FF01C0E6FF02C0E6FF03C00C
:10342A00E6FF080E69250001FF6F000E01016A21FF
:10343A00006F6BC173F16CC174F16DC175F16EC12E
:10344A0076F1660E776F660E786F660E796F7F0E6D
:10345A007A6F84EC15F0480E046EE10E056E3A0E92
:10346A00066E7E0E076E98EC05F0FFC0E1FF00C104
:10347A00E2FF00C0E6FF01C0E6FF02C0E6FF03C0AC
:10348A00E6FF0C0E69250001FF6F000E01016A219B
:10349A00006F6BC173F16CC174F16DC175F16EC1CE
:1034AA0076F1F00E776FA70E786F460E796F7F0E62
:1034BA007A6F84EC15F0B20E046E9D0E056E0F0E37
:1034CA00066E7F0E076E98EC05F0FFC0E1FF00C1A3
:1034DA00E2FF00C0E6FF01C0E6FF02C0E6FF03C04C
:0434EA00E6FF1200E7
:1034EE0067C100F068C101F080EC13F000C073F109
:1034FE0001C074F102C075F103C076F1600E0101D6
:10350E00776FE50E786F000E796F7F0E7A6F84EC11
:10351E0015F0290E046E5C0E056E5B0E066E810EA6
:08352E00076E5DEC0BF01200CA
:1035360067C100F068C101F080EC13F000C06BF1C8
:1035460001C06CF102C06DF103C06EF169C1FFF0FC
:103556006AC100F100C073F101C074F102C075F1D7
:1035660003C076F18F0E0101776FC20E786F550E8C
:10357600796F7F0E7A6F84EC15F0F60E046E280EC6
:10358600056E3C0E066E7F0E076E5DEC0BF0FFC0FF
:10359600E1FF00C1E2FF00C0E6FF01C0E6FF02C096
:1035A600E6FF03C0E6FF040E010169250001FF6F77
:1035B600000E01016A21006F6BC173F16CC174F1D9
:1035C6006DC175F16EC176F1E90E776F260E786FD3
:1035D600210E796F800E7A6F84EC15F0FFC0E1FF43
:1035E60000C1E2FF00C0E6FF01C0E6FF02C0E6FF41
:1035F60003C0E6FF080E69250001FF6F000E0101FA
:103606006A21006F6BC173F16CC174F16DC175F104
:103616006EC176F1B80E776F1E0E786F150E796F44
:10362600800E7A6F84EC15F0FFC0E1FF00C1E2FF67
:1036360000C0E6FF01C0E6FF02C0E6FF03C0E6FFEA
:02364600120070
:0A36480067C199F068C19AF0120002
:103652006DC1C0F06AC173F16BC174F16CC175F1D7
:10366200AAEC10F067C173F168C174F169C175F118
:06367200E6EC0FF012006F
:1036780099C069F19AC06AF1010167510001991175
:103688000101696F00019A51010168116A6F79ECB3
:1036980013F00050010A01E0FAD7010E0101736F1F
:1036A80069C174F16AC175F169EC15F00101736BB8
:1036B8009FEC14F000C002F001C003F003320232A4
:1036C800039E03320232039E03320232039E033208
:0E36D8000232039E02C000F003C001F0120097
:1036E6000101676B070E686F010E696FC2EC16F079
:1036F6000101676B2F0E686F3C0E696F000E6A6FD3
:10370600E4EC16F0100E0101676F800E686F250E4F
:10371600696F000E6A6F6B6F0FEC17F0090E0B6E78
:103726001E0E0C6EE40E0D6E0D2EFED70C2EFCD763
:083736000B2EFAD7000012006F
:10373E000900F5CFE6FF0006FBE10106F9E11200F4
:10374E00000E0101676F400E686F8FDF00C0FDF045
:10375E0001C0FEF0000E676F500E686F86DF00C06E
:10376E0055F101C056F1000E676F600E686F7DDF78
:10377E0000C053F101C054F1FDC067F1FEC068F105
:10378E00AFDE00C063F101C064F102C065F103C099
:10379E0066F155C167F156C168F1570E0101696FA7
:1037AE00010E6A6FC1DE53C167F154C168F1430E59
:1037BE00696F010E6A6FD2DD63C167F164C168F192
:1037CE0065C169F166C16AF1110E6B6F010E6C6F06
:1037DE004EEC17F0B40E676F000E686F010E696F36
:1037EE006BDD110E0101676F010E686F010E696FBF
:1037FE0063DDAF0E0101676F000E686F020E696F19
:10380E005BDD57C167F158C168F159C169F15AC101
:10381E006AF1110E01016B6F010E6C6F4EEC17F019
:10382E00A30E676F000E686F010E696F45DD110EF6
:10383E000101676F010E686F010E696F3DDD5C0E51
:10384E000101676F000E686F020E696F35DD5BC197
:10385E0067F15CC168F15DC169F15EC16AF1110E7B
:10386E0001016B6F010E6C6F4EEC17F0610E676FFE
:10387E00000E686F010E696F1FDD110E0101676F7B
:10388E00010E686F010E696F17DD490E0101676F3A
:10389E00000E686F020E696F0FDD5FC167F160C1C8
:1038AE0068F161C169F162C16AF1110E01016B6FBC
:1038BE00010E6C6F4EEC17F04E0E676F000E686FB8
:1038CE00010E696FF9DC110E0101676F010E686F51
:1038DE00010E696FF1DC7F0E0101676F000E686FDC
:1038EE00020E696FE9DC43C167F144C168F145C15D
:1038FE0069F146C16AF1110E01016B6F010E6C6F19
:10390E004EEC17F0840E676F000E686F010E696F34
:10391E00D3DC110E0101676F010E686F010E696F26
:10392E00CBDC6E0E0101676F000E686F020E696FC1
:10393E00C3DC47C167F148C168F149C169F14AC1A9
:10394E006AF1110E01016B6F010E6C6F4EEC17F0E8
:10395E00730E676F000E686F010E696FADDC110E8E
:10396E000101676F010E686F010E696FA5DC290EEC
:10397E000101676F000E686F020E696F9DDC4BC10F
:10398E0067F14CC168F14DC169F14EC16AF1110E7A
:10399E0001016B6F010E6C6F4EEC17F02E0E676F00
:1039AE00000E686F010E696F87DC110E0101676FE3
:1039BE00010E686F010E696F7FDC150E0101676FD6
:1039CE00000E686F020E696F77DC4FC167F150C150
:1039DE0068F151C169F152C16AF1110E01016B6FAB
:1039EE00010E6C6F4EEC17F01A0E676F000E686FBB
:1039FE00010E696F61DC110E0101676F010E686FB8
:103A0E00010E696F59DC390E0101676F000E686F88
:103A1E00020E696F51DC3E0E0101676F000E686F7A
:103A2E00020E696F49DC290E0B6E960E0C6E7F0E20
:103A3E000D6E0D2EFED70C2EFCD70B2EFAD71200C4
:103A4E006F0E0101676F3B0E686F000E696F1B0EE4
:103A5E006A6F3C0E6B6F000E6C6F480E6D6FF2DD71
:103A6E00000E006E800E016E000E0010676F01508A
:103A7E000409686F000E6713010E6813800E67133A
:103A8E00000E6813000E6713000E6813000E671306
:103A9E00000E6813000E6713000E6813030E6713F3
:083AAE00000E6813CADD1200CE
:0E3AB6001AEC1EF015DEC8DF47DEFED7FFD784
:103C340010EE15F0AB0E006E010E016EC40EF66EA2
:0E3C44003A0EF76E000EF86E9FEC1BF01200A9
:053AC4002070706D0090
:0F3AC90020433248354F4820646174613A200031
:053AD8002070706D007C
:0B3ADD0020483220646174613A200030
:053AE8002070706D006C
:0B3AED00202D2D2D2D2D2D2D2D200026
:053AF8002070706D005C
:0E3AFD0020433448313020646174613A200067
:053B0B002070706D0048
:0D3B1000204333483820646174613A20007E
:053B1D002070706D0036
:0C3B22002043483420646174613A2000A4
:053B2E002070706D0025
:0B3B330020434F20646174613A2000C1
:043B3E000000000083
:023B4200300051
:043B44004E614E0080
:023B4800838573
:043B4A00494E46009A
:043B4E000000000073
:0C3B5200204E483320646174613A20006A
:053B5E002070706D00F5
:0C3B6300204E4F3220646174613A200053
:103B6F00EE019D010A029D01FC019D0198019D013D
:103B7F008A019D01A6019D01C2019D01B4019D0114
:103B8F005E029D014E049D0126029D0118029D01BA
:103B9F00141100000A110000E4120000901300003D
:103BAF001A12000086130000D01200005A0E0000F7
:103BBF004A09000024120000DA1200009A130000D4
:103BCF000000007F1872317EF0FD757C4758637AD4
:103BDF0058951D7882C42E75A8782172EF93006FC7
:083BEF00A092276B46561568F1
:103BF700FFE65B5DC4FF7F7E80EFFF7D90E1297D5F
:103C0700EC82F67C82AD2B7C0E3CC37B87D1137A8A
:043C17004178D377A6
:103C1B0038120000B8090000880D00002C10970125
:043C2B004C0F9701A2
:043C2F00A08601006A
:020000040030CA
:0E00000015137F7CF98B91FFFFC0FFE0FF40DE
:00000001FF
